{
  "_format": "hh-sol-artifact-1",
  "contractName": "MyToken",
  "sourceName": "contracts/ERC1155.sol",
  "abi": [
    {
      "inputs": [
        {
          "internalType": "string",
          "name": "_uri",
          "type": "string"
        },
        {
          "internalType": "uint256",
          "name": "_maxSupply",
          "type": "uint256"
        }
      ],
      "stateMutability": "nonpayable",
      "type": "constructor"
    },
    {
      "inputs": [
        {
          "internalType": "address",
          "name": "sender",
          "type": "address"
        },
        {
          "internalType": "uint256",
          "name": "balance",
          "type": "uint256"
        },
        {
          "internalType": "uint256",
          "name": "needed",
          "type": "uint256"
        },
        {
          "internalType": "uint256",
          "name": "tokenId",
          "type": "uint256"
        }
      ],
      "name": "ERC1155InsufficientBalance",
      "type": "error"
    },
    {
      "inputs": [
        {
          "internalType": "address",
          "name": "approver",
          "type": "address"
        }
      ],
      "name": "ERC1155InvalidApprover",
      "type": "error"
    },
    {
      "inputs": [
        {
          "internalType": "uint256",
          "name": "idsLength",
          "type": "uint256"
        },
        {
          "internalType": "uint256",
          "name": "valuesLength",
          "type": "uint256"
        }
      ],
      "name": "ERC1155InvalidArrayLength",
      "type": "error"
    },
    {
      "inputs": [
        {
          "internalType": "address",
          "name": "operator",
          "type": "address"
        }
      ],
      "name": "ERC1155InvalidOperator",
      "type": "error"
    },
    {
      "inputs": [
        {
          "internalType": "address",
          "name": "receiver",
          "type": "address"
        }
      ],
      "name": "ERC1155InvalidReceiver",
      "type": "error"
    },
    {
      "inputs": [
        {
          "internalType": "address",
          "name": "sender",
          "type": "address"
        }
      ],
      "name": "ERC1155InvalidSender",
      "type": "error"
    },
    {
      "inputs": [
        {
          "internalType": "address",
          "name": "operator",
          "type": "address"
        },
        {
          "internalType": "address",
          "name": "owner",
          "type": "address"
        }
      ],
      "name": "ERC1155MissingApprovalForAll",
      "type": "error"
    },
    {
      "inputs": [
        {
          "internalType": "address",
          "name": "owner",
          "type": "address"
        }
      ],
      "name": "OwnableInvalidOwner",
      "type": "error"
    },
    {
      "inputs": [
        {
          "internalType": "address",
          "name": "account",
          "type": "address"
        }
      ],
      "name": "OwnableUnauthorizedAccount",
      "type": "error"
    },
    {
      "anonymous": false,
      "inputs": [
        {
          "indexed": true,
          "internalType": "address",
          "name": "account",
          "type": "address"
        },
        {
          "indexed": true,
          "internalType": "address",
          "name": "operator",
          "type": "address"
        },
        {
          "indexed": false,
          "internalType": "bool",
          "name": "approved",
          "type": "bool"
        }
      ],
      "name": "ApprovalForAll",
      "type": "event"
    },
    {
      "anonymous": false,
      "inputs": [
        {
          "indexed": true,
          "internalType": "address",
          "name": "previousOwner",
          "type": "address"
        },
        {
          "indexed": true,
          "internalType": "address",
          "name": "newOwner",
          "type": "address"
        }
      ],
      "name": "OwnershipTransferred",
      "type": "event"
    },
    {
      "anonymous": false,
      "inputs": [
        {
          "indexed": true,
          "internalType": "address",
          "name": "operator",
          "type": "address"
        },
        {
          "indexed": true,
          "internalType": "address",
          "name": "from",
          "type": "address"
        },
        {
          "indexed": true,
          "internalType": "address",
          "name": "to",
          "type": "address"
        },
        {
          "indexed": false,
          "internalType": "uint256[]",
          "name": "ids",
          "type": "uint256[]"
        },
        {
          "indexed": false,
          "internalType": "uint256[]",
          "name": "values",
          "type": "uint256[]"
        }
      ],
      "name": "TransferBatch",
      "type": "event"
    },
    {
      "anonymous": false,
      "inputs": [
        {
          "indexed": true,
          "internalType": "address",
          "name": "operator",
          "type": "address"
        },
        {
          "indexed": true,
          "internalType": "address",
          "name": "from",
          "type": "address"
        },
        {
          "indexed": true,
          "internalType": "address",
          "name": "to",
          "type": "address"
        },
        {
          "indexed": false,
          "internalType": "uint256",
          "name": "id",
          "type": "uint256"
        },
        {
          "indexed": false,
          "internalType": "uint256",
          "name": "value",
          "type": "uint256"
        }
      ],
      "name": "TransferSingle",
      "type": "event"
    },
    {
      "anonymous": false,
      "inputs": [
        {
          "indexed": false,
          "internalType": "string",
          "name": "value",
          "type": "string"
        },
        {
          "indexed": true,
          "internalType": "uint256",
          "name": "id",
          "type": "uint256"
        }
      ],
      "name": "URI",
      "type": "event"
    },
    {
      "inputs": [
        {
          "internalType": "address",
          "name": "account",
          "type": "address"
        },
        {
          "internalType": "uint256",
          "name": "id",
          "type": "uint256"
        }
      ],
      "name": "balanceOf",
      "outputs": [
        {
          "internalType": "uint256",
          "name": "",
          "type": "uint256"
        }
      ],
      "stateMutability": "view",
      "type": "function"
    },
    {
      "inputs": [
        {
          "internalType": "address[]",
          "name": "accounts",
          "type": "address[]"
        },
        {
          "internalType": "uint256[]",
          "name": "ids",
          "type": "uint256[]"
        }
      ],
      "name": "balanceOfBatch",
      "outputs": [
        {
          "internalType": "uint256[]",
          "name": "",
          "type": "uint256[]"
        }
      ],
      "stateMutability": "view",
      "type": "function"
    },
    {
      "inputs": [
        {
          "internalType": "address",
          "name": "account",
          "type": "address"
        },
        {
          "internalType": "uint256",
          "name": "id",
          "type": "uint256"
        },
        {
          "internalType": "uint256",
          "name": "value",
          "type": "uint256"
        }
      ],
      "name": "burn",
      "outputs": [],
      "stateMutability": "nonpayable",
      "type": "function"
    },
    {
      "inputs": [
        {
          "internalType": "address",
          "name": "account",
          "type": "address"
        },
        {
          "internalType": "uint256[]",
          "name": "ids",
          "type": "uint256[]"
        },
        {
          "internalType": "uint256[]",
          "name": "values",
          "type": "uint256[]"
        }
      ],
      "name": "burnBatch",
      "outputs": [],
      "stateMutability": "nonpayable",
      "type": "function"
    },
    {
      "inputs": [
        {
          "internalType": "uint256",
          "name": "id",
          "type": "uint256"
        },
        {
          "internalType": "uint256",
          "name": "balance",
          "type": "uint256"
        }
      ],
      "name": "burnToken",
      "outputs": [],
      "stateMutability": "nonpayable",
      "type": "function"
    },
    {
      "inputs": [],
      "name": "currentPrice",
      "outputs": [
        {
          "internalType": "uint256",
          "name": "",
          "type": "uint256"
        }
      ],
      "stateMutability": "view",
      "type": "function"
    },
    {
      "inputs": [
        {
          "internalType": "uint256",
          "name": "id",
          "type": "uint256"
        }
      ],
      "name": "exists",
      "outputs": [
        {
          "internalType": "bool",
          "name": "",
          "type": "bool"
        }
      ],
      "stateMutability": "view",
      "type": "function"
    },
    {
      "inputs": [
        {
          "internalType": "address",
          "name": "account",
          "type": "address"
        },
        {
          "internalType": "address",
          "name": "operator",
          "type": "address"
        }
      ],
      "name": "isApprovedForAll",
      "outputs": [
        {
          "internalType": "bool",
          "name": "",
          "type": "bool"
        }
      ],
      "stateMutability": "view",
      "type": "function"
    },
    {
      "inputs": [],
      "name": "maxSupply",
      "outputs": [
        {
          "internalType": "uint256",
          "name": "",
          "type": "uint256"
        }
      ],
      "stateMutability": "view",
      "type": "function"
    },
    {
      "inputs": [
        {
          "internalType": "address",
          "name": "account",
          "type": "address"
        },
        {
          "internalType": "uint256",
          "name": "id",
          "type": "uint256"
        },
        {
          "internalType": "uint256",
          "name": "amount",
          "type": "uint256"
        }
      ],
      "name": "mint",
      "outputs": [],
      "stateMutability": "payable",
      "type": "function"
    },
    {
      "inputs": [],
      "name": "owner",
      "outputs": [
        {
          "internalType": "address",
          "name": "",
          "type": "address"
        }
      ],
      "stateMutability": "view",
      "type": "function"
    },
    {
      "inputs": [],
      "name": "renounceOwnership",
      "outputs": [],
      "stateMutability": "nonpayable",
      "type": "function"
    },
    {
      "inputs": [
        {
          "internalType": "address",
          "name": "from",
          "type": "address"
        },
        {
          "internalType": "address",
          "name": "to",
          "type": "address"
        },
        {
          "internalType": "uint256[]",
          "name": "ids",
          "type": "uint256[]"
        },
        {
          "internalType": "uint256[]",
          "name": "values",
          "type": "uint256[]"
        },
        {
          "internalType": "bytes",
          "name": "data",
          "type": "bytes"
        }
      ],
      "name": "safeBatchTransferFrom",
      "outputs": [],
      "stateMutability": "nonpayable",
      "type": "function"
    },
    {
      "inputs": [
        {
          "internalType": "address",
          "name": "from",
          "type": "address"
        },
        {
          "internalType": "address",
          "name": "to",
          "type": "address"
        },
        {
          "internalType": "uint256",
          "name": "id",
          "type": "uint256"
        },
        {
          "internalType": "uint256",
          "name": "value",
          "type": "uint256"
        },
        {
          "internalType": "bytes",
          "name": "data",
          "type": "bytes"
        }
      ],
      "name": "safeTransferFrom",
      "outputs": [],
      "stateMutability": "nonpayable",
      "type": "function"
    },
    {
      "inputs": [
        {
          "internalType": "address",
          "name": "operator",
          "type": "address"
        },
        {
          "internalType": "bool",
          "name": "approved",
          "type": "bool"
        }
      ],
      "name": "setApprovalForAll",
      "outputs": [],
      "stateMutability": "nonpayable",
      "type": "function"
    },
    {
      "inputs": [
        {
          "internalType": "string",
          "name": "newuri",
          "type": "string"
        }
      ],
      "name": "setURI",
      "outputs": [],
      "stateMutability": "nonpayable",
      "type": "function"
    },
    {
      "inputs": [
        {
          "internalType": "bytes4",
          "name": "interfaceId",
          "type": "bytes4"
        }
      ],
      "name": "supportsInterface",
      "outputs": [
        {
          "internalType": "bool",
          "name": "",
          "type": "bool"
        }
      ],
      "stateMutability": "view",
      "type": "function"
    },
    {
      "inputs": [],
      "name": "totalSupply",
      "outputs": [
        {
          "internalType": "uint256",
          "name": "",
          "type": "uint256"
        }
      ],
      "stateMutability": "view",
      "type": "function"
    },
    {
      "inputs": [
        {
          "internalType": "uint256",
          "name": "id",
          "type": "uint256"
        }
      ],
      "name": "totalSupply",
      "outputs": [
        {
          "internalType": "uint256",
          "name": "",
          "type": "uint256"
        }
      ],
      "stateMutability": "view",
      "type": "function"
    },
    {
      "inputs": [
        {
          "internalType": "address",
          "name": "newOwner",
          "type": "address"
        }
      ],
      "name": "transferOwnership",
      "outputs": [],
      "stateMutability": "nonpayable",
      "type": "function"
    },
    {
      "inputs": [
        {
          "internalType": "uint256",
          "name": "",
          "type": "uint256"
        }
      ],
      "name": "uri",
      "outputs": [
        {
          "internalType": "string",
          "name": "",
          "type": "string"
        }
      ],
      "stateMutability": "view",
      "type": "function"
    }
  ],
  "bytecode": "0x608060405266038d7ea4c680006007553480156200001c57600080fd5b506040516200380338038062003803833981810160405281019062000042919062000395565b33826200005581620000ec60201b60201c565b50600073ffffffffffffffffffffffffffffffffffffffff168173ffffffffffffffffffffffffffffffffffffffff1603620000cb5760006040517f1e4fbdf7000000000000000000000000000000000000000000000000000000008152600401620000c2919062000440565b60405180910390fd5b620000dc816200010160201b60201c565b5080600681905550505062000785565b8060029081620000fd91906200069e565b5050565b6000600360009054906101000a900473ffffffffffffffffffffffffffffffffffffffff16905081600360006101000a81548173ffffffffffffffffffffffffffffffffffffffff021916908373ffffffffffffffffffffffffffffffffffffffff1602179055508173ffffffffffffffffffffffffffffffffffffffff168173ffffffffffffffffffffffffffffffffffffffff167f8be0079c531659141344cd1fd0a4f28419497f9722a3daafe3b4186f6b6457e060405160405180910390a35050565b6000604051905090565b600080fd5b600080fd5b600080fd5b600080fd5b6000601f19601f8301169050919050565b7f4e487b7100000000000000000000000000000000000000000000000000000000600052604160045260246000fd5b6200023082620001e5565b810181811067ffffffffffffffff82111715620002525762000251620001f6565b5b80604052505050565b600062000267620001c7565b905062000275828262000225565b919050565b600067ffffffffffffffff821115620002985762000297620001f6565b5b620002a382620001e5565b9050602081019050919050565b60005b83811015620002d0578082015181840152602081019050620002b3565b60008484015250505050565b6000620002f3620002ed846200027a565b6200025b565b905082815260208101848484011115620003125762000311620001e0565b5b6200031f848285620002b0565b509392505050565b600082601f8301126200033f576200033e620001db565b5b815162000351848260208601620002dc565b91505092915050565b6000819050919050565b6200036f816200035a565b81146200037b57600080fd5b50565b6000815190506200038f8162000364565b92915050565b60008060408385031215620003af57620003ae620001d1565b5b600083015167ffffffffffffffff811115620003d057620003cf620001d6565b5b620003de8582860162000327565b9250506020620003f1858286016200037e565b9150509250929050565b600073ffffffffffffffffffffffffffffffffffffffff82169050919050565b60006200042882620003fb565b9050919050565b6200043a816200041b565b82525050565b60006020820190506200045760008301846200042f565b92915050565b600081519050919050565b7f4e487b7100000000000000000000000000000000000000000000000000000000600052602260045260246000fd5b60006002820490506001821680620004b057607f821691505b602082108103620004c657620004c562000468565b5b50919050565b60008190508160005260206000209050919050565b60006020601f8301049050919050565b600082821b905092915050565b600060088302620005307fffffffffffffffffffffffffffffffffffffffffffffffffffffffffffffffff82620004f1565b6200053c8683620004f1565b95508019841693508086168417925050509392505050565b6000819050919050565b60006200057f6200057962000573846200035a565b62000554565b6200035a565b9050919050565b6000819050919050565b6200059b836200055e565b620005b3620005aa8262000586565b848454620004fe565b825550505050565b600090565b620005ca620005bb565b620005d781848462000590565b505050565b5b81811015620005ff57620005f3600082620005c0565b600181019050620005dd565b5050565b601f8211156200064e576200061881620004cc565b6200062384620004e1565b8101602085101562000633578190505b6200064b6200064285620004e1565b830182620005dc565b50505b505050565b600082821c905092915050565b6000620006736000198460080262000653565b1980831691505092915050565b60006200068e838362000660565b9150826002028217905092915050565b620006a9826200045d565b67ffffffffffffffff811115620006c557620006c4620001f6565b5b620006d1825462000497565b620006de82828562000603565b600060209050601f83116001811462000716576000841562000701578287015190505b6200070d858262000680565b8655506200077d565b601f1984166200072686620004cc565b60005b82811015620007505784890151825560018201915060208501945060208101905062000729565b868310156200077057848901516200076c601f89168262000660565b8355505b6001600288020188555050505b505050505050565b61306e80620007956000396000f3fe6080604052600436106101295760003560e01c8063715018a6116100ab578063bd85b0391161006f578063bd85b039146103e0578063d5abeb011461041d578063e985e9c514610448578063f242432a14610485578063f2fde38b146104ae578063f5298aca146104d757610129565b8063715018a6146103215780638225b247146103385780638da5cb5b146103615780639d1b464a1461038c578063a22cb465146103b757610129565b806318160ddd116100f257806318160ddd1461022a5780632eb2c2d6146102555780634e1273f41461027e5780634f558e79146102bb5780636b20c454146102f857610129565b8062fdd58e1461012e57806301ffc9a71461016b57806302fe5305146101a85780630e89341c146101d1578063156e29f61461020e575b600080fd5b34801561013a57600080fd5b5061015560048036038101906101509190611f06565b610500565b6040516101629190611f55565b60405180910390f35b34801561017757600080fd5b50610192600480360381019061018d9190611fc8565b61055a565b60405161019f9190612010565b60405180910390f35b3480156101b457600080fd5b506101cf60048036038101906101ca9190612171565b61063c565b005b3480156101dd57600080fd5b506101f860048036038101906101f391906121ba565b610650565b6040516102059190612266565b60405180910390f35b61022860048036038101906102239190612288565b6106e4565b005b34801561023657600080fd5b5061023f610765565b60405161024c9190611f55565b60405180910390f35b34801561026157600080fd5b5061027c60048036038101906102779190612444565b61076f565b005b34801561028a57600080fd5b506102a560048036038101906102a091906125d6565b610817565b6040516102b2919061270c565b60405180910390f35b3480156102c757600080fd5b506102e260048036038101906102dd91906121ba565b610920565b6040516102ef9190612010565b60405180910390f35b34801561030457600080fd5b5061031f600480360381019061031a919061272e565b610934565b005b34801561032d57600080fd5b506103366109e0565b005b34801561034457600080fd5b5061035f600480360381019061035a91906127b9565b6109f4565b005b34801561036d57600080fd5b50610376610a55565b6040516103839190612808565b60405180910390f35b34801561039857600080fd5b506103a1610a7f565b6040516103ae9190611f55565b60405180910390f35b3480156103c357600080fd5b506103de60048036038101906103d9919061284f565b610a85565b005b3480156103ec57600080fd5b50610407600480360381019061040291906121ba565b610a9b565b6040516104149190611f55565b60405180910390f35b34801561042957600080fd5b50610432610ab8565b60405161043f9190611f55565b60405180910390f35b34801561045457600080fd5b5061046f600480360381019061046a919061288f565b610abe565b60405161047c9190612010565b60405180910390f35b34801561049157600080fd5b506104ac60048036038101906104a791906128cf565b610b52565b005b3480156104ba57600080fd5b506104d560048036038101906104d09190612966565b610bfa565b005b3480156104e357600080fd5b506104fe60048036038101906104f99190612288565b610c80565b005b600080600083815260200190815260200160002060008473ffffffffffffffffffffffffffffffffffffffff1673ffffffffffffffffffffffffffffffffffffffff16815260200190815260200160002054905092915050565b60007fd9b67a26000000000000000000000000000000000000000000000000000000007bffffffffffffffffffffffffffffffffffffffffffffffffffffffff1916827bffffffffffffffffffffffffffffffffffffffffffffffffffffffff1916148061062557507f0e89341c000000000000000000000000000000000000000000000000000000007bffffffffffffffffffffffffffffffffffffffffffffffffffffffff1916827bffffffffffffffffffffffffffffffffffffffffffffffffffffffff1916145b80610635575061063482610d2c565b5b9050919050565b610644610d96565b61064d81610e1d565b50565b60606002805461065f906129c2565b80601f016020809104026020016040519081016040528092919081815260200182805461068b906129c2565b80156106d85780601f106106ad576101008083540402835291602001916106d8565b820191906000526020600020905b8154815290600101906020018083116106bb57829003601f168201915b50505050509050919050565b600654816106f184610a9b565b6106fb9190612a22565b111561073c576040517f08c379a000000000000000000000000000000000000000000000000000000000815260040161073390612aa2565b60405180910390fd5b61075783838360405180602001604052806000815250610e30565b61076082610ec9565b505050565b6000600554905090565b6000610779610f0b565b90508073ffffffffffffffffffffffffffffffffffffffff168673ffffffffffffffffffffffffffffffffffffffff16141580156107be57506107bc8682610abe565b155b156108025780866040517fe237d9220000000000000000000000000000000000000000000000000000000081526004016107f9929190612ac2565b60405180910390fd5b61080f8686868686610f13565b505050505050565b6060815183511461086357815183516040517f5b05999100000000000000000000000000000000000000000000000000000000815260040161085a929190612aeb565b60405180910390fd5b6000835167ffffffffffffffff8111156108805761087f612046565b5b6040519080825280602002602001820160405280156108ae5781602001602082028036833780820191505090505b50905060005b8451811015610915576108eb6108d3828761100b90919063ffffffff16565b6108e6838761101f90919063ffffffff16565b610500565b8282815181106108fe576108fd612b14565b5b6020026020010181815250508060010190506108b4565b508091505092915050565b60008061092c83610a9b565b119050919050565b61093c610f0b565b73ffffffffffffffffffffffffffffffffffffffff168373ffffffffffffffffffffffffffffffffffffffff161415801561098557506109838361097e610f0b565b610abe565b155b156109d057610992610f0b565b836040517fe237d9220000000000000000000000000000000000000000000000000000000081526004016109c7929190612ac2565b60405180910390fd5b6109db838383611033565b505050565b6109e8610d96565b6109f260006110c7565b565b6109ff338383610c80565b610a0882610ec9565b3373ffffffffffffffffffffffffffffffffffffffff166108fc6007549081150290604051600060405180830381858888f19350505050158015610a50573d6000803e3d6000fd5b505050565b6000600360009054906101000a900473ffffffffffffffffffffffffffffffffffffffff16905090565b60075481565b610a97610a90610f0b565b838361118d565b5050565b600060046000838152602001908152602001600020549050919050565b60065481565b6000600160008473ffffffffffffffffffffffffffffffffffffffff1673ffffffffffffffffffffffffffffffffffffffff16815260200190815260200160002060008373ffffffffffffffffffffffffffffffffffffffff1673ffffffffffffffffffffffffffffffffffffffff16815260200190815260200160002060009054906101000a900460ff16905092915050565b6000610b5c610f0b565b90508073ffffffffffffffffffffffffffffffffffffffff168673ffffffffffffffffffffffffffffffffffffffff1614158015610ba15750610b9f8682610abe565b155b15610be55780866040517fe237d922000000000000000000000000000000000000000000000000000000008152600401610bdc929190612ac2565b60405180910390fd5b610bf286868686866112fd565b505050505050565b610c02610d96565b600073ffffffffffffffffffffffffffffffffffffffff168173ffffffffffffffffffffffffffffffffffffffff1603610c745760006040517f1e4fbdf7000000000000000000000000000000000000000000000000000000008152600401610c6b9190612808565b60405180910390fd5b610c7d816110c7565b50565b610c88610f0b565b73ffffffffffffffffffffffffffffffffffffffff168373ffffffffffffffffffffffffffffffffffffffff1614158015610cd15750610ccf83610cca610f0b565b610abe565b155b15610d1c57610cde610f0b565b836040517fe237d922000000000000000000000000000000000000000000000000000000008152600401610d13929190612ac2565b60405180910390fd5b610d27838383611408565b505050565b60007f01ffc9a7000000000000000000000000000000000000000000000000000000007bffffffffffffffffffffffffffffffffffffffffffffffffffffffff1916827bffffffffffffffffffffffffffffffffffffffffffffffffffffffff1916149050919050565b610d9e610f0b565b73ffffffffffffffffffffffffffffffffffffffff16610dbc610a55565b73ffffffffffffffffffffffffffffffffffffffff1614610e1b57610ddf610f0b565b6040517f118cdaa7000000000000000000000000000000000000000000000000000000008152600401610e129190612808565b60405180910390fd5b565b8060029081610e2c9190612cef565b5050565b600073ffffffffffffffffffffffffffffffffffffffff168473ffffffffffffffffffffffffffffffffffffffff1603610ea25760006040517f57f447ce000000000000000000000000000000000000000000000000000000008152600401610e999190612808565b60405180910390fd5b600080610eaf85856114af565b91509150610ec16000878484876114df565b505050505050565b6000610ed482610a9b565b9050613e80818266038d7ea4c68000610eed9190612dc1565b610ef79190612dc1565b610f019190612e32565b6007819055505050565b600033905090565b600073ffffffffffffffffffffffffffffffffffffffff168473ffffffffffffffffffffffffffffffffffffffff1603610f855760006040517f57f447ce000000000000000000000000000000000000000000000000000000008152600401610f7c9190612808565b60405180910390fd5b600073ffffffffffffffffffffffffffffffffffffffff168573ffffffffffffffffffffffffffffffffffffffff1603610ff75760006040517f01a83514000000000000000000000000000000000000000000000000000000008152600401610fee9190612808565b60405180910390fd5b61100485858585856114df565b5050505050565b600060208202602084010151905092915050565b600060208202602084010151905092915050565b600073ffffffffffffffffffffffffffffffffffffffff168373ffffffffffffffffffffffffffffffffffffffff16036110a55760006040517f01a8351400000000000000000000000000000000000000000000000000000000815260040161109c9190612808565b60405180910390fd5b6110c28360008484604051806020016040528060008152506114df565b505050565b6000600360009054906101000a900473ffffffffffffffffffffffffffffffffffffffff16905081600360006101000a81548173ffffffffffffffffffffffffffffffffffffffff021916908373ffffffffffffffffffffffffffffffffffffffff1602179055508173ffffffffffffffffffffffffffffffffffffffff168173ffffffffffffffffffffffffffffffffffffffff167f8be0079c531659141344cd1fd0a4f28419497f9722a3daafe3b4186f6b6457e060405160405180910390a35050565b600073ffffffffffffffffffffffffffffffffffffffff168273ffffffffffffffffffffffffffffffffffffffff16036111ff5760006040517fced3e1000000000000000000000000000000000000000000000000000000000081526004016111f69190612808565b60405180910390fd5b80600160008573ffffffffffffffffffffffffffffffffffffffff1673ffffffffffffffffffffffffffffffffffffffff16815260200190815260200160002060008473ffffffffffffffffffffffffffffffffffffffff1673ffffffffffffffffffffffffffffffffffffffff16815260200190815260200160002060006101000a81548160ff0219169083151502179055508173ffffffffffffffffffffffffffffffffffffffff168373ffffffffffffffffffffffffffffffffffffffff167f17307eab39ab6107e8899845ad3d59bd9653f200f220920489ca2b5937696c31836040516112f09190612010565b60405180910390a3505050565b600073ffffffffffffffffffffffffffffffffffffffff168473ffffffffffffffffffffffffffffffffffffffff160361136f5760006040517f57f447ce0000000000000000000000000000000000000000000000000000000081526004016113669190612808565b60405180910390fd5b600073ffffffffffffffffffffffffffffffffffffffff168573ffffffffffffffffffffffffffffffffffffffff16036113e15760006040517f01a835140000000000000000000000000000000000000000000000000000000081526004016113d89190612808565b60405180910390fd5b6000806113ee85856114af565b915091506113ff87878484876114df565b50505050505050565b600073ffffffffffffffffffffffffffffffffffffffff168373ffffffffffffffffffffffffffffffffffffffff160361147a5760006040517f01a835140000000000000000000000000000000000000000000000000000000081526004016114719190612808565b60405180910390fd5b60008061148784846114af565b915091506114a88560008484604051806020016040528060008152506114df565b5050505050565b60608060405191506001825283602083015260408201905060018152826020820152604081016040529250929050565b6114eb85858585611591565b600073ffffffffffffffffffffffffffffffffffffffff168473ffffffffffffffffffffffffffffffffffffffff161461158a576000611529610f0b565b9050600184510361157957600061154a60008661101f90919063ffffffff16565b9050600061156260008661101f90919063ffffffff16565b90506115728389898585896115a3565b5050611588565b611587818787878787611757565b5b505b5050505050565b61159d8484848461190b565b50505050565b60008473ffffffffffffffffffffffffffffffffffffffff163b111561174f578373ffffffffffffffffffffffffffffffffffffffff1663f23a6e6187878686866040518663ffffffff1660e01b8152600401611604959493929190612eb8565b6020604051808303816000875af192505050801561164057506040513d601f19601f8201168201806040525081019061163d9190612f27565b60015b6116c4573d8060008114611670576040519150601f19603f3d011682016040523d82523d6000602084013e611675565b606091505b5060008151036116bc57846040517f57f447ce0000000000000000000000000000000000000000000000000000000081526004016116b39190612808565b60405180910390fd5b805181602001fd5b63f23a6e6160e01b7bffffffffffffffffffffffffffffffffffffffffffffffffffffffff1916817bffffffffffffffffffffffffffffffffffffffffffffffffffffffff19161461174d57846040517f57f447ce0000000000000000000000000000000000000000000000000000000081526004016117449190612808565b60405180910390fd5b505b505050505050565b60008473ffffffffffffffffffffffffffffffffffffffff163b1115611903578373ffffffffffffffffffffffffffffffffffffffff1663bc197c8187878686866040518663ffffffff1660e01b81526004016117b8959493929190612f54565b6020604051808303816000875af19250505080156117f457506040513d601f19601f820116820180604052508101906117f19190612f27565b60015b611878573d8060008114611824576040519150601f19603f3d011682016040523d82523d6000602084013e611829565b606091505b50600081510361187057846040517f57f447ce0000000000000000000000000000000000000000000000000000000081526004016118679190612808565b60405180910390fd5b805181602001fd5b63bc197c8160e01b7bffffffffffffffffffffffffffffffffffffffffffffffffffffffff1916817bffffffffffffffffffffffffffffffffffffffffffffffffffffffff19161461190157846040517f57f447ce0000000000000000000000000000000000000000000000000000000081526004016118f89190612808565b60405180910390fd5b505b505050505050565b61191784848484611ab6565b600073ffffffffffffffffffffffffffffffffffffffff168473ffffffffffffffffffffffffffffffffffffffff16036119f1576000805b83518110156119d557600083828151811061196d5761196c612b14565b5b60200260200101519050806004600087858151811061198f5761198e612b14565b5b6020026020010151815260200190815260200160002060008282546119b49190612a22565b9250508190555080836119c79190612a22565b92505080600101905061194f565b5080600560008282546119e89190612a22565b92505081905550505b600073ffffffffffffffffffffffffffffffffffffffff168373ffffffffffffffffffffffffffffffffffffffff1603611ab0576000805b8351811015611a9d576000838281518110611a4757611a46612b14565b5b602002602001015190508060046000878581518110611a6957611a68612b14565b5b6020026020010151815260200190815260200160002060008282540392505081905550808301925050806001019050611a29565b5080600560008282540392505081905550505b50505050565b8051825114611b0057815181516040517f5b059991000000000000000000000000000000000000000000000000000000008152600401611af7929190612aeb565b60405180910390fd5b6000611b0a610f0b565b905060005b8351811015611d19576000611b2d828661101f90919063ffffffff16565b90506000611b44838661101f90919063ffffffff16565b9050600073ffffffffffffffffffffffffffffffffffffffff168873ffffffffffffffffffffffffffffffffffffffff1614611c7157600080600084815260200190815260200160002060008a73ffffffffffffffffffffffffffffffffffffffff1673ffffffffffffffffffffffffffffffffffffffff16815260200190815260200160002054905081811015611c1957888183856040517f03dee4c5000000000000000000000000000000000000000000000000000000008152600401611c109493929190612fbc565b60405180910390fd5b81810360008085815260200190815260200160002060008b73ffffffffffffffffffffffffffffffffffffffff1673ffffffffffffffffffffffffffffffffffffffff16815260200190815260200160002081905550505b600073ffffffffffffffffffffffffffffffffffffffff168773ffffffffffffffffffffffffffffffffffffffff1614611d0c578060008084815260200190815260200160002060008973ffffffffffffffffffffffffffffffffffffffff1673ffffffffffffffffffffffffffffffffffffffff1681526020019081526020016000206000828254611d049190612a22565b925050819055505b5050806001019050611b0f565b506001835103611dd8576000611d3960008561101f90919063ffffffff16565b90506000611d5160008561101f90919063ffffffff16565b90508573ffffffffffffffffffffffffffffffffffffffff168773ffffffffffffffffffffffffffffffffffffffff168473ffffffffffffffffffffffffffffffffffffffff167fc3d58168c5ae7397731d063d5bbf3d657854427343f4c083240f7aacaa2d0f628585604051611dc9929190612aeb565b60405180910390a45050611e57565b8373ffffffffffffffffffffffffffffffffffffffff168573ffffffffffffffffffffffffffffffffffffffff168273ffffffffffffffffffffffffffffffffffffffff167f4a39dc06d4c0dbc64b70af90fd698a233a518aa5d07e595d983b8c0526c8f7fb8686604051611e4e929190613001565b60405180910390a45b5050505050565b6000604051905090565b600080fd5b600080fd5b600073ffffffffffffffffffffffffffffffffffffffff82169050919050565b6000611e9d82611e72565b9050919050565b611ead81611e92565b8114611eb857600080fd5b50565b600081359050611eca81611ea4565b92915050565b6000819050919050565b611ee381611ed0565b8114611eee57600080fd5b50565b600081359050611f0081611eda565b92915050565b60008060408385031215611f1d57611f1c611e68565b5b6000611f2b85828601611ebb565b9250506020611f3c85828601611ef1565b9150509250929050565b611f4f81611ed0565b82525050565b6000602082019050611f6a6000830184611f46565b92915050565b60007fffffffff0000000000000000000000000000000000000000000000000000000082169050919050565b611fa581611f70565b8114611fb057600080fd5b50565b600081359050611fc281611f9c565b92915050565b600060208284031215611fde57611fdd611e68565b5b6000611fec84828501611fb3565b91505092915050565b60008115159050919050565b61200a81611ff5565b82525050565b60006020820190506120256000830184612001565b92915050565b600080fd5b600080fd5b6000601f19601f8301169050919050565b7f4e487b7100000000000000000000000000000000000000000000000000000000600052604160045260246000fd5b61207e82612035565b810181811067ffffffffffffffff8211171561209d5761209c612046565b5b80604052505050565b60006120b0611e5e565b90506120bc8282612075565b919050565b600067ffffffffffffffff8211156120dc576120db612046565b5b6120e582612035565b9050602081019050919050565b82818337600083830152505050565b600061211461210f846120c1565b6120a6565b9050828152602081018484840111156121305761212f612030565b5b61213b8482856120f2565b509392505050565b600082601f8301126121585761215761202b565b5b8135612168848260208601612101565b91505092915050565b60006020828403121561218757612186611e68565b5b600082013567ffffffffffffffff8111156121a5576121a4611e6d565b5b6121b184828501612143565b91505092915050565b6000602082840312156121d0576121cf611e68565b5b60006121de84828501611ef1565b91505092915050565b600081519050919050565b600082825260208201905092915050565b60005b83811015612221578082015181840152602081019050612206565b60008484015250505050565b6000612238826121e7565b61224281856121f2565b9350612252818560208601612203565b61225b81612035565b840191505092915050565b60006020820190508181036000830152612280818461222d565b905092915050565b6000806000606084860312156122a1576122a0611e68565b5b60006122af86828701611ebb565b93505060206122c086828701611ef1565b92505060406122d186828701611ef1565b9150509250925092565b600067ffffffffffffffff8211156122f6576122f5612046565b5b602082029050602081019050919050565b600080fd5b600061231f61231a846122db565b6120a6565b9050808382526020820190506020840283018581111561234257612341612307565b5b835b8181101561236b57806123578882611ef1565b845260208401935050602081019050612344565b5050509392505050565b600082601f83011261238a5761238961202b565b5b813561239a84826020860161230c565b91505092915050565b600067ffffffffffffffff8211156123be576123bd612046565b5b6123c782612035565b9050602081019050919050565b60006123e76123e2846123a3565b6120a6565b90508281526020810184848401111561240357612402612030565b5b61240e8482856120f2565b509392505050565b600082601f83011261242b5761242a61202b565b5b813561243b8482602086016123d4565b91505092915050565b600080600080600060a086880312156124605761245f611e68565b5b600061246e88828901611ebb565b955050602061247f88828901611ebb565b945050604086013567ffffffffffffffff8111156124a05761249f611e6d565b5b6124ac88828901612375565b935050606086013567ffffffffffffffff8111156124cd576124cc611e6d565b5b6124d988828901612375565b925050608086013567ffffffffffffffff8111156124fa576124f9611e6d565b5b61250688828901612416565b9150509295509295909350565b600067ffffffffffffffff82111561252e5761252d612046565b5b602082029050602081019050919050565b600061255261254d84612513565b6120a6565b9050808382526020820190506020840283018581111561257557612574612307565b5b835b8181101561259e578061258a8882611ebb565b845260208401935050602081019050612577565b5050509392505050565b600082601f8301126125bd576125bc61202b565b5b81356125cd84826020860161253f565b91505092915050565b600080604083850312156125ed576125ec611e68565b5b600083013567ffffffffffffffff81111561260b5761260a611e6d565b5b612617858286016125a8565b925050602083013567ffffffffffffffff81111561263857612637611e6d565b5b61264485828601612375565b9150509250929050565b600081519050919050565b600082825260208201905092915050565b6000819050602082019050919050565b61268381611ed0565b82525050565b6000612695838361267a565b60208301905092915050565b6000602082019050919050565b60006126b98261264e565b6126c38185612659565b93506126ce8361266a565b8060005b838110156126ff5781516126e68882612689565b97506126f1836126a1565b9250506001810190506126d2565b5085935050505092915050565b6000602082019050818103600083015261272681846126ae565b905092915050565b60008060006060848603121561274757612746611e68565b5b600061275586828701611ebb565b935050602084013567ffffffffffffffff81111561277657612775611e6d565b5b61278286828701612375565b925050604084013567ffffffffffffffff8111156127a3576127a2611e6d565b5b6127af86828701612375565b9150509250925092565b600080604083850312156127d0576127cf611e68565b5b60006127de85828601611ef1565b92505060206127ef85828601611ef1565b9150509250929050565b61280281611e92565b82525050565b600060208201905061281d60008301846127f9565b92915050565b61282c81611ff5565b811461283757600080fd5b50565b60008135905061284981612823565b92915050565b6000806040838503121561286657612865611e68565b5b600061287485828601611ebb565b92505060206128858582860161283a565b9150509250929050565b600080604083850312156128a6576128a5611e68565b5b60006128b485828601611ebb565b92505060206128c585828601611ebb565b9150509250929050565b600080600080600060a086880312156128eb576128ea611e68565b5b60006128f988828901611ebb565b955050602061290a88828901611ebb565b945050604061291b88828901611ef1565b935050606061292c88828901611ef1565b925050608086013567ffffffffffffffff81111561294d5761294c611e6d565b5b61295988828901612416565b9150509295509295909350565b60006020828403121561297c5761297b611e68565b5b600061298a84828501611ebb565b91505092915050565b7f4e487b7100000000000000000000000000000000000000000000000000000000600052602260045260246000fd5b600060028204905060018216806129da57607f821691505b6020821081036129ed576129ec612993565b5b50919050565b7f4e487b7100000000000000000000000000000000000000000000000000000000600052601160045260246000fd5b6000612a2d82611ed0565b9150612a3883611ed0565b9250828201905080821115612a5057612a4f6129f3565b5b92915050565b7f4d79546f6b656e3a204d617820737570706c7920657863656564000000000000600082015250565b6000612a8c601a836121f2565b9150612a9782612a56565b602082019050919050565b60006020820190508181036000830152612abb81612a7f565b9050919050565b6000604082019050612ad760008301856127f9565b612ae460208301846127f9565b9392505050565b6000604082019050612b006000830185611f46565b612b0d6020830184611f46565b9392505050565b7f4e487b7100000000000000000000000000000000000000000000000000000000600052603260045260246000fd5b60008190508160005260206000209050919050565b60006020601f8301049050919050565b600082821b905092915050565b600060088302612ba57fffffffffffffffffffffffffffffffffffffffffffffffffffffffffffffffff82612b68565b612baf8683612b68565b95508019841693508086168417925050509392505050565b6000819050919050565b6000612bec612be7612be284611ed0565b612bc7565b611ed0565b9050919050565b6000819050919050565b612c0683612bd1565b612c1a612c1282612bf3565b848454612b75565b825550505050565b600090565b612c2f612c22565b612c3a818484612bfd565b505050565b5b81811015612c5e57612c53600082612c27565b600181019050612c40565b5050565b601f821115612ca357612c7481612b43565b612c7d84612b58565b81016020851015612c8c578190505b612ca0612c9885612b58565b830182612c3f565b50505b505050565b600082821c905092915050565b6000612cc660001984600802612ca8565b1980831691505092915050565b6000612cdf8383612cb5565b9150826002028217905092915050565b612cf8826121e7565b67ffffffffffffffff811115612d1157612d10612046565b5b612d1b82546129c2565b612d26828285612c62565b600060209050601f831160018114612d595760008415612d47578287015190505b612d518582612cd3565b865550612db9565b601f198416612d6786612b43565b60005b82811015612d8f57848901518255600182019150602085019450602081019050612d6a565b86831015612dac5784890151612da8601f891682612cb5565b8355505b6001600288020188555050505b505050505050565b6000612dcc82611ed0565b9150612dd783611ed0565b9250828202612de581611ed0565b91508282048414831517612dfc57612dfb6129f3565b5b5092915050565b7f4e487b7100000000000000000000000000000000000000000000000000000000600052601260045260246000fd5b6000612e3d82611ed0565b9150612e4883611ed0565b925082612e5857612e57612e03565b5b828204905092915050565b600081519050919050565b600082825260208201905092915050565b6000612e8a82612e63565b612e948185612e6e565b9350612ea4818560208601612203565b612ead81612035565b840191505092915050565b600060a082019050612ecd60008301886127f9565b612eda60208301876127f9565b612ee76040830186611f46565b612ef46060830185611f46565b8181036080830152612f068184612e7f565b90509695505050505050565b600081519050612f2181611f9c565b92915050565b600060208284031215612f3d57612f3c611e68565b5b6000612f4b84828501612f12565b91505092915050565b600060a082019050612f6960008301886127f9565b612f7660208301876127f9565b8181036040830152612f8881866126ae565b90508181036060830152612f9c81856126ae565b90508181036080830152612fb08184612e7f565b90509695505050505050565b6000608082019050612fd160008301876127f9565b612fde6020830186611f46565b612feb6040830185611f46565b612ff86060830184611f46565b95945050505050565b6000604082019050818103600083015261301b81856126ae565b9050818103602083015261302f81846126ae565b9050939250505056fea2646970667358221220c7a304575ae4b9f72c007b2b89f78422589d9cd709c4d6b700bb634371b0d27964736f6c63430008180033",
  "linkReferences": {},
  "deployedLinkReferences": {}
}